:1000000012C030C22BC02AC029C028C014C226C0CA
:1000100025C024C023C022C021C020C01FC01EC0D4
:100020001DC01CC01BC011241FBECFE5D4E0DEBF25
:10003000CDBF11E0A0E6B0E0E0E3FEE002C0059035
:100040000D92AA39B107D9F711E0AAE9B1E001C0D0
:100050001D92A63BB107E1F702D0E8C6D1CF84B329
:100060008F6084BB80E090E00197F1F781E025D1BB
:1000700060E081E0F5D0B9D180E090E0BCD0809321
:100080009E0181E090E0B7D080939C0182E090E0F7
:10009000B2D080939B0183E090E0ADD080939D012E
:1000A00080919A01843109F440C0853130F48A305E
:1000B00089F18F3009F054C013C0843421F08135A8
:1000C00009F04EC01AC060919E01609560939E0138
:1000D000662311F4A89A01C0A89880E090E03FC080
:1000E00060919C01609560939C01662311F4A99A2C
:1000F00001C0A99881E090E032C060919B016095B9
:1001000060939B01662311F4AA9A01C0AA9882E029
:1001100090E025C060919D01609560939D016623EC
:1001200011F4AB9A1AC0AB9818C010929E011092AD
:100130009C0110929B0110929D0160E080E090E094
:1001400052D060919C0181E090E04DD060919B0184
:1001500082E090E048D060919D0183E090E043D040
:1001600080919E01882331F460E081E036D180E601
:1001700090E005C060E081E030D187E690E0C5D036
:1001800080919C01882331F460E089E026D18EE6DD
:1001900090E005C060E089E020D185E790E0B5D02F
:1001A00080919B01882331F461E081E016D18CE7D6
:1001B00090E005C061E081E010D183E890E0A5D037
:1001C00080919D01882331F461E089E006D18AE8BD
:1001D00090E005C061E089E000D181E990E095D030
:1001E00081E0E4D25DCFE199FECF9FBB8EBB6DBBBA
:1001F000E29AE19A0895E199FECF9FBB8EBBE09A07
:100200008DB3089581B3877881BBC09AC29881E08D
:100210008A95F1F721E032E0979A822F8A95F1F7DB
:1002200080B38695869586958295807F922F9A9544
:10023000F1F79798932F9A95F1F7979A922F9A95AD
:10024000F1F790B3922F9A95F1F79798932F9A958B
:10025000F1F787FDE1CFC09881B3886781BB08952E
:10026000282F662311F4C29801C0C29A81E08A95B2
:10027000F1F7979A92B3822F82958F70880F880F2B
:10028000880F9778892B82BB92E0892F8A95F1F7A6
:100290009798892F8A95F1F7979A82B32F70220F3A
:1002A000220F220F8778822B82BB892F8A95F1F744
:1002B00097989A95F1F7A6DF08951F93182F80E677
:1002C0009AEE0197F1F781B3886781BB8F9ABA9A4A
:1002D000B89A82B3877882BB9798C098C29881E019
:1002E0008A95F1F7979A949A82E0982F9A95F1F768
:1002F00097988A95F1F786DF60E0812F8C60B0DFF8
:1003000060E088E2ADDF1F910895CF93DF93EC01A9
:1003100003C061E0A5DF219688818823D1F7DF91B2
:10032000CF910895EF92FF920F931F93DF93CF9396
:1003300000D000D00F92CDB7DEB79C018B01FE013B
:10034000319685E0DF011D928A95E9F7FE01359629
:100350000BC0C9016AE070E00BD58083C9016AE077
:1003600070E006D59B0131972115310591F7BFEF5C
:100370000F3F1B0779F420E030E0AE014F5F5F4F85
:1003800002C02F5F3F4FFA01E20FF31F80818823E5
:10039000C1F304C025E030E0201B310B7E0108943E
:1003A000E11CF11CE20EF31E890108C0F7018191E6
:1003B0007F0161E0805D54DF0F5F1F4F0530110545
:1003C000ACF30F900F900F900F900F90CF91DF91A3
:1003D0001F910F91FF90EF900895883228F46111DA
:1003E000806460E080683CDF08951092A301109261
:1003F000A4011092A5011092A6011092B5011092CD
:10040000B4011092A7011092A10110929F018EB524
:1004100089608EBD89B7806189BF80E590E09BBD12
:100420008ABD85B7826085BF8BB780648BBF8FB76D
:1004300080688FBF08951F920F920FB60F921124FC
:100440008F939F938091B1019091B2010196909307
:10045000B2018093B1019F918F910F900FBE0F90C9
:100460001F9018951F920F920FB60F921124DF92D2
:10047000EF92FF920F931F932F933F934F935F93AE
:100480006F937F938F939F93AF93BF93CF93DF939C
:10049000EF93FF938BB78F7B8BBF78948091B401E0
:1004A0009091B501892B09F056C1C091B101D0914D
:1004B000B2011092B2011092B10112BED090A70108
:1004C00081E0D81659F1D81648F083E0D81609F41F
:1004D00093C084E0D81609F03BC1E0C08091A1012F
:1004E000882309F4D4C0BE0180E090E0D7D17B011D
:1004F0008C0120E030E84AE454E47AD118160CF07C
:1005000015C120E030E847E754E4C801B7019BD1AA
:1005100087FF0CC181E08093A70112C1BE0180E07A
:1005200090E0BCD17B018C0120E030E84AEC53E440
:100530005FD11816B4F420E030E847EF53E4C80167
:10054000B70181D188236CF483E08093A7011092D6
:10055000A2011092A00185B7836085BFD092A1014E
:10056000F7C0C95CD040AC9708F0E0C080919F0113
:100570008823A1F180919900873021F4809198001F
:10058000882351F0809199002091980090E0019685
:1005900030E08217930759F4809198008F5F809321
:1005A000980080919800883011F410929800809102
:1005B0009900873019F41092990005C08091990034
:1005C0008F5F80939900E0919900F0E08091A801FD
:1005D000E755FE4F808380919800A8C08091B301B9
:1005E0008F5F8093B3018091B301843009F09EC086
:1005F00081E080939F019AC08091A101882329F016
:10060000E397629708F092C09BC0CE018A9740970B
:1006100040F1BE0180E090E041D17B018C012AE9EC
:1006200039E148E153E4E4D018160CF07FC026E627
:1006300036EE49E353E4C801B70105D187FF76C020
:10064000E091A001F0E0ED55FE4F20813091A20134
:1006500081E090E002C0880F991F3A95E2F7282BBD
:1006600020838091A2018F5F8093A2018091A201DB
:10067000883069F41092A2018091A0018F5F80936D
:10068000A0018091A001843011F48093A70185B767
:10069000836085BF81E08093A1015AC08091A10150
:1006A000882309F455C09091A5018091A6018095F9
:1006B000981709F04DC080919900873021F48091FE
:1006C0009800882351F0809199002091980090E043
:1006D000019630E08217930759F4809198008F5F5C
:1006E0008093980080919800883011F410929800BF
:1006F00080919900873019F41092990005C080917B
:1007000099008F5F80939900E0919900F0E08091CB
:10071000A501E755FE4F80838091A5018093A80134
:100720008091980010929F011092B3011092A30142
:100730001092A4011092A5011092A6011092A70197
:1007400085B78C7F85BF85B7826085BF1092A10178
:100750008BB780648BBFFF91EF91DF91CF91BF91F9
:10076000AF919F918F917F916F915F914F913F9149
:100770002F911F910F91FF90EF90DF900F900FBE80
:100780000F901F9018951092A3011092A40110923F
:10079000A5011092A6011092A70185B78C7F85BF95
:1007A00085B7826085BF1092A1010895809198005D
:1007B000E0919800F0E0E755FE4FE08190919800BD
:1007C00080919900981731F48FEF80939900809170
:1007D00099000AC080919800873019F4109298000F
:1007E00005C0809198008F5F809398008E2F0895A8
:1007F000A8E1B0E0EDEFF3E0EEC269837A838B838A
:100800009C832D833E834F83588789E0E82EF12C0B
:10081000EC0EFD1EB701CE010196D9D18E010F5EFF
:100820001F4FB801CE010596D2D18985823038F0AC
:100830008989823020F0B801C70141D201C08FEF11
:100840006896E6E0E4C2A8E1B0E0E8E2F4E0C3C202
:1008500069837A838B839C832D833E834F83588760
:1008600089E0E82EF12CEC0EFD1EB701CE010196B9
:10087000AED18E010F5E1F4FB801CE010596A7D1F4
:100880008985823038F08989823020F0B801C7012B
:1008900016D201C081E06896E6E0B9C2A8E0B0E0F7
:1008A000E3E5F4E096C27B018C01611571058105D9
:1008B000910519F482E089835FC083E089838EE12A
:1008C000C82ED12CDC82CB82ED82FE820F8318876A
:1008D000C801B70158D0BC016150704077FF39C0E2
:1008E000EE27FF27E61BF70B20E030E040E050E06A
:1008F00081E090E0A0E0B0E00E2E04C0880F991FC8
:10090000AA1FBB1F0A94D2F70197A109B1098E2132
:100910009F21A023B1230097A105B10521F021E07B
:1009200030E040E050E004C016950795F794E79456
:10093000EA95D2F72E293F29402B512B2D833E8358
:100940004F8358878EE190E0861B970B9C838B83A7
:1009500013C06115710581F0062E04C0EE0CFF1C5A
:10096000001F111F0A94D2F7ED82FE820F831887B1
:10097000C61AD70ADC82CB821A82CE01019652D0E7
:100980002896E8E042C2EF92FF920F931F937B01FB
:100990008C0180E0E81680E0F80681E0080780E03E
:1009A000180788F48FEFE816F1040105110531F0FE
:1009B00028F088E090E0A0E0B0E017C080E090E090
:1009C000A0E0B0E012C080E0E81680E0F80680E029
:1009D000080781E0180728F088E190E0A0E0B0E087
:1009E00004C080E190E0A0E0B0E020E230E040E030
:1009F00050E0281B390B4A0B5B0B04C0169507957A
:100A0000F794E7948A95D2F7F701E656FF4F808175
:100A1000281B310941095109C9011F910F91FF900C
:100A2000EF900895DF92EF92FF920F931F93FC01D6
:100A3000E480F58006811781D1808081823048F47E
:100A400080E090E0A0E1B0E0E82AF92A0A2B1B2B15
:100A5000A5C0843009F49FC0823021F4EE24FF2425
:100A6000870105C0E114F1040105110519F4E0E066
:100A7000F0E096C0628173819FEF623879070CF0D5
:100A80005BC022E83FEF261B370B2A3131052CF0E3
:100A900020E030E040E050E02AC0B801A701022E7B
:100AA00004C076956795579547950A94D2F781E0EB
:100AB00090E0A0E0B0E004C0880F991FAA1FBB1F00
:100AC0002A95D2F70197A109B1098E219F21A02370
:100AD000B1230097A105B10521F081E090E0A0E0ED
:100AE000B0E09A01AB01282B392B4A2B5B2BDA01A2
:100AF000C9018F779070A070B07080349105A10506
:100B0000B10539F427FF09C0205C3F4F4F4F5F4FBD
:100B100004C0215C3F4F4F4F5F4FE0E0F0E02030DA
:100B2000A0E03A07A0E04A07A0E45A0710F0E1E08D
:100B3000F0E079018A0127C06038710564F5FB0196
:100B4000E158FF4FD801C7018F779070A070B07047
:100B500080349105A105B10539F4E7FE0DC080E4AC
:100B600090E0A0E0B0E004C08FE390E0A0E0B0E04F
:100B7000E80EF91E0A1F1B1F17FF05C016950795E3
:100B8000F794E794319687E016950795F794E794E4
:100B90008A95D1F705C0EE24FF248701EFEFF0E03E
:100BA0006E2F679566276795902F9F77D794DD24E2
:100BB000D7948E2F8695492F462B582F5D29B70144
:100BC000CA011F910F91FF90EF90DF900895FC01F3
:100BD000DB01408151812281622F6F7770E0221FFB
:100BE0002227221F9381892F880F822B282F30E004
:100BF000991F9927991F11969C93119721153105DB
:100C0000A9F5411551056105710511F482E037C060
:100C100082E89FEF13969C938E9312979A01AB01F3
:100C200067E0220F331F441F551F6A95D1F783E0F9
:100C30008C930DC0220F331F441F551F12968D91A8
:100C40009C911397019713969C938E931297203043
:100C500080E0380780E0480780E4580758F314968E
:100C60002D933D934D935C93179708952F3F310536
:100C700079F4411551056105710519F484E08C93EF
:100C8000089564FF03C081E08C9312C01C9210C0D1
:100C90002F57304013963C932E93129783E08C93FA
:100CA00087E0440F551F661F771F8A95D1F7706440
:100CB00014964D935D936D937C93179708951F93AE
:100CC000DC01FB019C91923008F447C080818230A6
:100CD00008F443C0943051F411961C91843099F576
:100CE0008181682F70E0611B71093FC0843021F061
:100CF000923031F48230B9F18181882389F12DC09D
:100D000011961C9111978230F1F081811817D9F456
:100D100012962D913C9113978281938182179307AC
:100D200094F028173907BCF014968D919D910D9081
:100D3000BC91A02D24813581468157812817390720
:100D40004A075B0718F4112341F00AC08217930782
:100D5000A407B50740F4112319F061E070E005C065
:100D60006FEF7FEF02C060E070E0CB011F9108954C
:100D700097FB092E07260AD077FD04D00CD006D0A9
:100D800000201AF4709561957F4F0895F6F79095BD
:100D900081959F4F0895AA1BBB1B51E107C0AA1F55
:100DA000BB1FA617B70710F0A61BB70B881F991F0C
:100DB0005A95A9F780959095BC01CD0108952F9281
:100DC0003F924F925F926F927F928F929F92AF92DB
:100DD000BF92CF92DF92EF92FF920F931F93CF9328
:100DE000DF93CDB7DEB7CA1BDB0B0FB6F894DEBFBF
:100DF0000FBECDBF09942A88398848885F846E84E5
:100E00007D848C849B84AA84B984C884DF80EE802E
:100E1000FD800C811B81AA81B981CE0FD11D0FB637
:100E2000F894DEBF0FBECDBFED010895F894FFCF5B
:100E300041312D4F46460041312D4F4E2000413269
:100E40002D4F46460041322D4F4E200041332D4F4D
:100E500046460041332D4F4E200041342D4F46462B
:100E60000041342D4F4E2000FFFF0001020203031A
:100E7000030304040404040404040505050505052E
:100E8000050505050505050505050606060606060C
:100E900006060606060606060606060606060606F2
:100EA00006060606060606060606070707070707DC
:100EB00007070707070707070707070707070707C2
:100EC00007070707070707070707070707070707B2
:100ED00007070707070707070707070707070707A2
:100EE000070707070707070707070808080808088C
:100EF0000808080808080808080808080808080872
:100F00000808080808080808080808080808080861
:100F10000808080808080808080808080808080851
:100F20000808080808080808080808080808080841
:100F30000808080808080808080808080808080831
:100F40000808080808080808080808080808080821
:100F50000808080808080808080808080808080811
:0A0F60000808080808080808080837
:00000001FF
